:020000040800F2
:100000000050002021020008270200082B020008EF
:100010009D020008A1020008E9020008000000009B
:100020000000000000000000000000003103000894
:1000300035030008000000003903000831130008F0
:100040004D0300084D0300084D0300084D03000850
:100050004D0300084D0300084D0300084D03000840
:100060004D0300084D0300084D0300084D03000830
:100070004D0300084D0300084D0300084D03000820
:100080004D0300084D0300084D0300084D03000810
:100090004D0300084D0300084D0300084D03000800
:1000A0004D0300084D0300084D0300084D030008F0
:1000B0004D0300084D0300084D0300084D030008E0
:1000C0004D0300084D0300084D0300084D030008D0
:1000D0004D0300083D1400084D0300084D030008BF
:1000E0004D0300084D0300084D0300080000000008
:1000F0000000000000000000000000000000000000
:1001000000000000000000005FF808F100B583B0B7
:1001100000F0AAF9304B314A1360314A1360314B79
:10012000314A32498B4204D21168196004330432D7
:10013000F7E72A4B1A682E4B9A4200D0FEE7284B6D
:100140001A682C4B9A42F9D1234B2B4A13602B4A45
:1001500013602B4B02E000221A600433294A9342B9
:10016000F9D3254B1B6813B9244B1B6803B1FEE779
:1001700000F086F9694601A800F022F9224C234BD1
:10018000E41AA4100025AC4214DC214C214BE41AE3
:10019000A4100025AC4213DC0099019801F016FA76
:1001A00005461D4C1D4BE41AA410002C0EDC2846FD
:1001B00000F0E2F8154B53F8253098470135E2E797
:1001C000144B53F8253098470135E3E7013C134BB6
:1001D00053F824309847E8E7BABADECA0000002096
:1001E0009800002000000020DC2900089C0000206E
:1001F00078563412325476989C00002080030020F8
:100200009C00002084030020780300087803000885
:1002100078030008780300087803000878030008D2
:1002200008B5FFF773FF00BEFEE71EF0040F0CBF1A
:10023000EFF30880EFF309807146414A10472DE93A
:10024000F04182B004468846124B5E6B9F6B9D6AFC
:100250001B6B13F0020F03D00E4BDB6A002B0CDB81
:100260000D4800F0B5F8CDF800803B4632462946EF
:10027000204600F009F900BEFEE74BF6AB6100F046
:100280007DF90028ECD0034B4FF00042DA6202B057
:10029000BDE8F08100ED00E01C29000800BEFEE78B
:1002A0001EF0040F0CBFEFF30880EFF309807146D6
:1002B000244A10472DE9F04182B004468846084B95
:1002C0005E6B9F6B9D6A074800F082F8CDF8008056
:1002D0003B4632462946204600F0D6F800BEFEE7EF
:1002E00000ED00E02C2900081EF0040F0CBFEFF316
:1002F0000880EFF309807146134A10472DE9F04159
:1003000082B004468846084B5E6B9F6B9D6A074827
:1003100000F05EF8CDF800803B4632462946204684
:1003200000F0B2F800BEFEE700ED00E0382900085A
:1003300000BEFEE700BEFEE700BEFEE7704700001D
:100340003F020008B5020008FD02000800BEFEE7FB
:10035000DC290008000000209C000020DC290008A7
:1003600000000000000000009C000020840300202A
:08037000000000000000000085
:10037800FEE7000008B503460C4A12685AB10B4A5A
:100388001068033323F003030344094A934206D851
:10039800064A136008BD054A06491160EFE701F0F7
:1003A800E3FD0C2303604FF0FF30F3E7A0000020CB
:1003B800004C00208403002001230360014B0B60E4
:1003C800704700BF040000200FB400B583B004AB31
:1003D80053F8042B01938021064801F0F7FD00280B
:1003E80003DD0146034800F037F803B05DF804EB7D
:1003F80004B07047A80000202DE9F04385B00446FA
:100408000F4643560BB10E461EE0042528462146EA
:10041800ABBE0446384605B0BDE8F08314F9011BAD
:1004280004AA1A4402F8101C0133AB42F6D304AAFA
:100438001344002203F8102C4FF00408E946404604
:100448004946ABBE8046761B002EE3D03546102EBB
:1004580028BF10250023E8E708B5FFF7CDFF08BD42
:1004680008B500F0FDF8024A024B9A6008BD00BFCB
:100478000000000800ED00E008B500F019F908BD1B
:10048800F8B504460D4617461E462748FFF79CFF59
:1004980021682648FFF798FF61682548FFF794FF11
:1004A800A1682448FFF790FFE1682348FFF78CFF15
:1004B80021692248FFF788FF61692148FFF784FF17
:1004C800A1692048FFF780FFE1691F48FFF77CFF1B
:1004D8001E48FFF779FF29461D48FFF775FF1D4C99
:1004E800E16A1D48FFF770FF216B1C48FFF76CFF9E
:1004F800E16B1B48FFF768FF15F0800F0AD115F470
:10050800004F0CD11748FFF75FFF06991648FFF711
:100518005BFFF8BD39461548FFF756FFEFE7314650
:100528001348FFF751FFEDE70028000810280008DE
:100538002028000830280008402800085028000813
:100548006028000870280008802800089028000803
:100558009C28000800ED00E0AC280008BC28000832
:10056800CC280008FC28000804290008DC2800081A
:10057800EC28000883691A888A4201D00020704755
:100588000268033A012A03D80233836101207047C5
:100598000020704782B00023019300932C4A13680F
:1005A80043F4803313602A4B1B6803F40033009331
:1005B800019B01330193009B1BB9019BB3F5A06F0D
:1005C800F1D1234B1B6813F4003F06D0012300939D
:1005D800009B012B04D002B0704700230093F7E77B
:1005E8001C4B1A6842F010021A601A6822F00302C3
:1005F8001A601A6842F002021A60A3F580535A681A
:100608005A605A685A605A6842F480625A605A6856
:1006180022F47C125A605A6842F4E8125A601A6846
:1006280042F080721A600A4B1B6813F0007FFAD000
:10063800074B5A6822F003025A605A6842F00202D5
:100648005A60034B5B6803F00C03082BF9D1C2E72F
:10065800001002400020024008B5FFF79BFF08BDCC
:1006680008B5104B1A6842F001021A6059680E4A20
:100678000A405A601A6822F0847222F480321A60A2
:100688001A6822F480221A605A6822F4FE025A601C
:100698004FF41F029A60FFF7DFFF044B4FF0006230
:1006A8009A6008BD001002400000FFF800ED00E06D
:1006B8001F4B5B6803F00C03042B15D0082B17D0D5
:1006C8001BB11C4B1C4A1A6002E01A4B1A4A1A60EA
:1006D800174B5B68C3F30313184AD35CDAB21549A6
:1006E8000B68D3400B607047124B134A1A60EFE750
:1006F8000F4A53685268C3F38343023312F4803FAE
:100708000AD00B4A526812F4003F0BD00C4A02FB85
:1007180003F3084A1360DBE7094A02FB03F3054ABF
:100728001360D5E7044A02FB03F3024A1360CFE7DC
:10073800001002401C00002000127A000C0000206B
:1007480000093D000000000030B583B0002301938C
:1007580001F05EF90022184B01F0D4F912A3D3E995
:10076800002301F017F80022144B01F013F8044697
:100778000D46134B186801F04BF902460B4620460C
:10078800294601F0BFF90AA3D3E9002301F0E4FAEE
:1007980001F0CAFB019B834203D2019B0133019301
:1007A800F8E703B030BD00BF0000000000A06740BC
:1007B80000000000E0CA684100408F4000000C4083
:1007C8002000002030B482B000231C460193B1F908
:1007D800002093B2072B16D80368019392000F23C9
:1007E80003FA02F5019B23EA050301938B78C97884
:1007F8000B439340019A13430193019B03602046E6
:1008080002B030BC7047083B9BB2072B19D81BB20B
:100818000B80426801929B000F2202FA03F5019AAD
:1008280022EA050201928A78CD782A4302FA03F374
:10083800019A13430193019B43600B8808330B8093
:10084800DDE74FF00104DAE710B403464FF000008B
:10085800012A09D08AB9DA68B1F900400121A1401A
:1008680022EA0102DA6006E0DA68B1F90040012103
:10087800A1400A43DA6010BC70474FF00100FAE764
:10088800B1F900108BB20F2B0AD810B404464FF000
:100898000000A368CB4003F00103137010BC70473D
:1008A8004FF001007047000030B583B0054600F0F6
:1008B80001038DF807309DF807202A49A1F1240487
:1008C8008868FFF7C1FFC5F340038DF807309DF82E
:1008D800072004F13001A06BFFF7B6FFC5F38003D2
:1008E8008DF807309DF8072004F13C01606CFFF794
:1008F800ABFFC5F3C0038DF807309DF8072004F15E
:100908004801206DFFF7A0FFC5F300138DF80730ED
:100918009DF8072004F15401E06DFFF795FFC5F33A
:1009280040138DF807309DF8072004F16001A06E90
:10093800FFF78AFFC5F380138DF807309DF807206D
:1009480004F16C01606FFFF77FFFED098DF8075028
:100958009DF8072004F17801D4F88000FFF774FFB0
:1009680003B030BDEC01002030B583B0204B0DF151
:10097800070219469868FFF783FF9DF80730012B97
:1009880011D01C4B1A781C4B1B789A4212D10023A9
:100998001A4A13701A4A1370174A1370194B1B68B6
:1009A8001BB3984721E0124B002219469868FFF7BD
:1009B8004BFF1AE0144C01222146A068FFF744FFC0
:1009C800002204F10C016069FFF73EFF0A4D2B7805
:1009D8000E4AD05CFFF768FF012204F11801206A73
:1009E800FFF732FF2B7801332B7003B030BD00BF07
:1009F800E0010020280100203701002038010020F4
:100A080036010020C4010020C80100202C0100206C
:100A180010B582B0154B0DF1070219469868FFF71B
:100A28002FFF9DF80730012B16D0114C00222146CC
:100A3800A068FFF709FF002204F10C016069FFF7C5
:100A480003FF0120FFF730FF012204F11801206A9B
:100A5800FFF7FAFE02B010BD044B00221946986851
:100A6800FFF7F2FE034B00221A70F3E7E0010020C3
:100A7800C80100203801002038B52820FFF764FE9F
:100A88002549A1F10C0400228868FFF7DDFE002249
:100A98002146A068FFF7D8FE3820FFF705FF04F1CC
:100AA800180501222946206AFFF7CEFE0120FFF72C
:100AB8004BFE00222946206AFFF7C6FE0220FFF7F8
:100AC80043FE0C20FFF7F0FE01222946206AFFF7BB
:100AD800BBFE0120FFF738FE00222946206AFFF7F7
:100AE800B3FE0220FFF730FE0120FFF7DDFE0122F2
:100AF8002946206AFFF7A8FE0120FFF725FE0022FD
:100B08002946206AFFF7A0FE0220FFF71DFE034BCF
:100B180001221A7038BD00BFD4010020390100201D
:100B280008B5094B1B7863B1084B1B78012B02D021
:100B3800022B03D008BDFFF717FFFBE7FFF768FF9D
:100B4800F8E7FFF799FFF5E73901002038010020A1
:100B58002DE9F04F85B0044600F1240B5946C06AD0
:100B6800FFF730FE04F1300A5146A06BFFF72AFE6A
:100B780004F13C094946606CFFF724FE04F148087B
:100B88004146206DFFF71EFE04F154073946E06D1B
:100B9800FFF718FE04F160063146A06EFFF712FE5B
:100BA80004F16C052946606FFFF70CFE04F1780329
:100BB80001931946D4F88000FFF704FE04F11802E7
:100BC80002921146206AFFF7FDFD2146A068FFF753
:100BD800F9FD04F10C0103916069FFF7F3FD2E4B59
:100BE80003F124029BE8030082E80300E26ADA6268
:100BF80003F130029AE8030082E80300A26B9A63CB
:100C080003F13C0299E8030082E80300626C5A642D
:100C180003F1480298E8030082E80300226D1A6590
:100C280003F1540297E8030082E80300E26DDA65F5
:100C380003F1600296E8030082E80300A26E9A6658
:100C480003F16C0295E8030082E80300626F5A67BB
:100C580003F17802019803C882E80300D4F88020E1
:100C6800C3F8802003F11802029803C882E8030041
:100C7800226A1A6294E8030083E80300A2689A6073
:100C880003F10C02039903C982E8030062695A61FF
:100C9800002005B0BDE8F08FC801002030B40F4B2C
:100CA8001B78B3B90E4B1D78ADB90C4B01221A70E5
:100CB8002B468B4205D2C45C0A4AD4540133DBB2BA
:100CC800F7E7094B1970064B01221A70284630BC09
:100CD80070470225FAE70225F8E700BF3601002031
:100CE800380100202C01002028010020014B186049
:100CF800704700BFC401002010B584B001AB83E881
:100D08000700054C93E8070084E8070002A9FFF7ED
:100D180059FD04B010BD00BF3C01002008B50349CF
:100D280051F8040B0122FFF78FFD08BD3C0100209C
:100D380008B5034951F8040B0022FFF785FD08BDEB
:100D48003C01002030B583B0002408E015490A5D55
:100D580001320A551AE0144A53550134E4B2022C00
:100D68001ED8254623011148191801AA2244043126
:100D7800C058FFF785FD02AB234413F8043C0A4A28
:100D8800125D9342E2D0074A00211155054A525D8F
:100D9800052AE0D1064A5355024A00215155DAE79F
:100DA80003B030BD480100204C0100204C02002057
:100DB800500100202DE9F04107460024022C17D8E5
:100DC800250107EB050808F1040631467859FFF7B5
:100DD800F9FC7959074A531951511A1D96E803002D
:100DE80082E8030098F80C201A730134E4B2E5E7AE
:100DF800BDE8F0814C020020014B185C704700BF31
:100E080050010020F0B585B004460D4617461E4631
:100E18004E4B98422ED04E4B984251D04D4B984253
:100E280070D041F64C539D4209D043F698239D4219
:100E380005D040F271239D4201D041F64C556FF424
:100E480040539F4203D0B7F5005F00D01F466FF4B0
:100E580080639E4206D0B6F5806F03D0B6F5C06FAA
:100E680000D01E4633463A462946204600F064FA2A
:100E780005B0F0BD252000F0ABF8042000F0BEF866
:100E88004FF4804000F0BAF8334801900923ADF8D8
:100E9800003008238DF8023001238DF803300390C9
:100EA8000A22ADF8082002228DF80A208DF80B30AE
:100EB8006946FFF787FC02A90398FFF783FCB0E7B0
:100EC800042000F09BF84FF4003000F097F8224817
:100ED80001900222ADF8002008238DF8023001238A
:100EE8008DF8033003900321ADF808108DF80A201F
:100EF8008DF80B306946FFF765FC02A90398FFF7E8
:100F080061FC8EE7082000F079F84FF4802000F0AB
:100F180075F8124801900A23ADF8003008238DF8BF
:100F2800023001238DF8033003900B22ADF808201E
:100F380002228DF80A208DF80B306946FFF742FC33
:100F480002A90398FFF73EFC6BE700BF0038014099
:100F5800004400400048004000080140000C0140E7
:100F680018B108B500F05AFA08BD0120704718B149
:100F780008B500F059FA08BD01207047B0F5807F28
:100F880009D0102807D0202805D0402803D0802871
:100F980001D001207047012901D90120704708B507
:100FA80000F02AFA08BD38B108B509B9012008BD12
:100FB80000F0EAF90020FAE70120704730B108B5DF
:100FC80009B9012008BD00F0EFF9FBE701207047DF
:100FD800EF280FD810B400F01F024309012000FACF
:100FE80002F2054903F1600441F8242041F8232066
:100FF80010BC70470220704700E100E0024A936984
:10100800184390610120704700100240434B5B6811
:1010180003F00C03042B07D0082B08D00BB10120D8
:1010280070473F4B0360FAE73D4B0360F7E73B4BE4
:101038005B6803F44033B3F5803F19D0B3F5403F04
:1010480018D0CBB10022354B5B6803F47013B3F5AD
:10105800E01F4DD01FD8B3F5402F41D00ED8B3F5BF
:10106800802F38D0B3F5002F38D093B30260D6E77D
:101078002B4AE8E72B4AE6E72A4AE4E7B3F5A01F3C
:1010880031D0B3F5C01F31D0B3F5801FEED102EBDC
:1010980042035A00EAE7B3F5301F35D00CD8B3F550
:1010A800101F28D0B3F5201F2AD0B3F5001FDDD1BB
:1010B80002EB82035A00D9E7B3F5501F29D0B3F5E4
:1010C800601F29D0B3F5401FD0D1C2EBC2035A002C
:1010D800CCE75200CAE702EB4202C7E79200C5E735
:1010E80002EB8202C2E7C2EBC202BFE7D200BDE751
:1010F80002EBC202BAE702EB820302EB4302B5E756
:1011080002EB42039A00B1E702EB420302EB8302CF
:10111800ACE7C2EB0212A9E71201A7E700100240F0
:1011280000127A0000093D0038B5002407E00E4B94
:1011380003EB05135A68013A5A600134E4B2042CEF
:1011480010D82546084B03EB04135B68002BEED13F
:10115800054A2301D11888684860D3581B681B6862
:101168009847E4E7012038BD54010020014B0122D3
:101178001A7070475301002030B587B001238DF8ED
:101188000D3000248DF80C40124B04934FF47A7301
:10119800019305AB029301A800F032F801A800F012
:1011A800BBF801A800F04CF82346042B0ED80A49D6
:1011B80001EBC300094D1C012A19285140685060F1
:1011C80051F83310496891600133EEE7012007B008
:1011D80030BD00BF751100084829000854010020DF
:1011E80008B500F08DF804E0044B00221A70FFF7F0
:1011F8009BFF024B1B78012BFBD1F5E75301002025
:101208000E4B1B68027A52B923F004030122417A7B
:1012180061B923F0020309490B6010467047012A9F
:1012280001D00222F3E743F00403F0E7012901D0DB
:101238000222F0E743F00203EDE700BF10E000E010
:10124800F0B583B005460023019300932A4B1B6831
:10125800C3F380030093009B002B41D10823009324
:1012680001A8FFF7D3FE286800F0D2FB06460F4618
:10127800019800F0CDFB02460B463046394600F097
:1012880041FC06460F46009800F0C2FB00221B4BAB
:1012980000F038FC16A3D3E9002300F033FC024623
:1012A8000B463046394600F057FD06460F4600F01B
:1012B8003BFE044600F0ACFB02460B46304639467E
:1012C80000F068FA00220D4B00F01CFC00F02CFE28
:1012D8006B6801341C60084B5860012003B0F0BDF6
:1012E800009B012BBCD10093BAE700BFAFF300808D
:1012F8000000000080842E4110E000E000007041F2
:10130800044B1A680021996042F001021A6001201A
:10131800704700BF10E000E0C268024B1A6001206D
:10132800704700BF7C02002008B5024B1B68984735
:1013380008BD00BF7C02002010B4C46844F4005407
:10134800C46081606FF440518A4212D001690A4337
:1013580002616FF4806293420FD0C2681343C36086
:10136800C36843F00C03C360064B1860002010BC30
:10137800704701690A400261EBE7C2681340C36025
:10138800EEE700BFAC010020054B18601971054A53
:101398001268017851605A7901325A71704700BF5A
:1013A8002C000020AC01002008B5104B9B79032BC2
:1013B80001D0012008BD0D4B186019710C4B1B683A
:1013C8001A6812F4806F09D15B680370074B5A7969
:1013D80001325A7102229A710020EBE7596801F034
:1013E8007F0101700348FEF7EFFFEFE724000020BC
:1013F800AC01002070290008012907D0064B1A68A3
:10140800D36823EA0003D36000207047024B1A68B0
:10141800D3680343D360F7E7AC010020014B1860A1
:1014280000207047A8010020014B18600020704779
:10143800A401002010B582B001230193244B1B683E
:101448001A6802F040010091009961B12148417980
:101458000079814215D01F480268545C5A682243BB
:101468005A6001314171019B4BB1194B1A681368DD
:1014780023F020031360184B9B79022B0DD002B088
:1014880010BD1449002048710871086022F040021C
:101498001A60124B1B689847E5E751680E4C2268A2
:1014A800637901F07F01D1540D48FEF78DFF637910
:1014B8000133DBB2637122799342E0D300222260C8
:1014C800627122710322A271064B1B689847D6E706
:1014D800AC0100202C00002024000020A8010020DE
:1014E80070290008A401002008B50248FEF76CFF27
:1014F80008BD00BF9429000808B50248FEF764FF3C
:1015080008BD00BF8429000808B50248FEF75CFF43
:1015180008BD00BF7429000808B50020FFF76CFC5F
:10152800064B1870064B1B7B984203D00020FFF730
:10153800F5FB08BD0020FFF7FBFBFAE7BC02002023
:101548008002002010B50120FFF756FC114C2070D6
:101558000220FFF751FC104B1870104B1A7F2378AC
:101568009A4209D09A420CD00D4C01212046FFF72F
:101578001AFD0C4B1C6010BD09480178013101703F
:10158800F0E7074B1B78002BEED00133044A1370A9
:10159800EAE700BFC80200205003002080020020B4
:1015A800B0010020B401002010B5054C01212068CD
:1015B800FFF704FD01212068FFF770FB10BD00BF95
:1015C800B4010020F8B50420FFF718FD0820FFF744
:1015D80015FD1020FFF712FD5948FFF7C1FC5948C7
:1015E800FFF7C5FC584D594828600B23AB800221F2
:1015F800A9710023EB712B7328610A22AA82A975AD
:10160800EB752B7728620126AE8485F8261085F8BD
:10161800273085F82C304E4F4E4A3A604FF00D0C6B
:10162800A7F804C0BB71FE714B4CA2F50062E262E0
:10163800A26362642265E265A2666267C4F88020DC
:10164800A26060612062A3842686A1870322A4F891
:1016580048200422A4F854200522A4F8602006207B
:10166800A4F86C000720A4F87800082020800C203B
:10167800A081A4F818C084F8276084F8336084F83F
:101688003F6084F84B6084F8576084F8636084F89E
:101698006F6084F87B60E670E673E67684F826303F
:1016A80084F8323084F83E3084F84A3084F8563072
:1016B80084F8623084F86E3084F87A30A370A373AB
:1016C800A376264B264818605A60264B2648186091
:1016D8005A60264B264A1A605960264B264A1A60D9
:1016E8004FF47A725A60254B254919605A6028468A
:1016F800FFF760FB294651F8040B3246FFF7A4F8C0
:1017080097E80700FFF7F8FA2046FFF721FA1D4887
:10171800FFF7ECFA4FF480634FF4005241F64C5156
:101728001948FFF76FFB31464020FFF727FC314689
:101738002020FFF723FCFFF71FFDFFF751FDF8BD41
:10174800F11400080115000880020020000C014077
:10175800B002002000100140CC0200206C030020E1
:101768004D0D0008C0020020211500086403002068
:10177800290B00085C0300204D15000854030020C5
:10178800B1150008111500080038014081F000412A
:1017980002E000BF83F0004330B54FEA41044FEA4E
:1017A800430594EA050F08BF90EA020F1FBF54EAE9
:1017B800000C55EA020C7FEA645C7FEA655C00F085
:1017C800E2804FEA5454D4EB5555B8BF6D420CDD56
:1017D8002C4480EA020281EA030382EA000083EAD9
:1017E800010180EA020281EA0303362D88BF30BD79
:1017F80011F0004F4FEA01314FF4801C4CEA1131CF
:1018080002D0404261EB410113F0004F4FEA03332D
:101818004CEA133302D0524263EB430394EA050FB8
:1018280000F0A780A4F10104D5F1200E0DDB02FA27
:101838000EFC22FA05F2801841F1000103FA0EF2BB
:10184800801843FA05F359410EE0A5F120050EF181
:10185800200E012A03FA0EFC28BF4CF0020C43FAB2
:1018680005F3C01851EBE37101F0004507D54FF0BF
:10187800000EDCF1000C7EEB00006EEB0101B1F50F
:10188800801F1BD3B1F5001F0CD349085FEA300055
:101898004FEA3C0C04F101044FEA445212F5800F60
:1018A80080F09A80BCF1004F08BF5FEA500C50F1FD
:1018B800000041EB045141EA050130BD5FEA4C0CE0
:1018C800404141EB010111F4801FA4F10104E9D169
:1018D80091F0000F04BF01460020B1FA81F308BF60
:1018E8002033A3F10B03B3F120020CDA0C3208DD2C
:1018F80002F1140CC2F10C0201FA0CF021FA02F107
:101908000CE002F11402D8BFC2F1200C01FA02F176
:1019180020FA0CFCDCBF41EA0C019040E41AA2BF9B
:1019280001EB0451294330BD6FEA04041F3C1CDA63
:101938000C340EDC04F11404C4F1200220FA04F083
:1019480001FA02F340EA030021FA04F345EA03012D
:1019580030BDC4F10C04C4F1200220FA02F001FAEF
:1019680004F340EA0300294630BD21FA04F0294671
:1019780030BD94F0000F83F4801306BF81F480110A
:101988000134013D4EE77FEA645C18BF7FEA655C7D
:1019980029D094EA050F08BF90EA020F05D054EA4F
:1019A800000C04BF1946104630BD91EA030F1EBF54
:1019B8000021002030BD5FEA545C05D14000494158
:1019C80028BF41F0004130BD14F580043CBF01F54B
:1019D800801130BD01F0004545F0FE4141F4700131
:1019E8004FF0000030BD7FEA645C1ABF194610460C
:1019F8007FEA655C1CBF0B46024650EA013406BF0D
:101A080052EA033591EA030F41F4002130BD00BFCB
:101A180090F0000F04BF0021704730B54FF4806488
:101A280004F132044FF000054FF0000150E700BF09
:101A380090F0000F04BF0021704730B54FF4806468
:101A480004F1320410F0004548BF40424FF0000155
:101A58003EE700BF42004FEAE2014FEA31014FEA98
:101A680002701FBF12F07F4393F07F4F81F06051E7
:101A7800704732F07F4208BF704793F07F4F04BF32
:101A880041F40021704730B54FF4607401F000450F
:101A980021F000411CE700BF50EA010208BF70476F
:101AA80030B54FF000050AE050EA010208BF704760
:101AB80030B511F0004502D5404261EB41014FF4C9
:101AC800806404F132045FEA915C3FF4D8AE4FF0D1
:101AD80003025FEADC0C18BF03325FEADC0C18BFB4
:101AE800033202EBDC02C2F1200300FA03FC20FA05
:101AF80002F001FA03FE40EA0E0021FA02F1144452
:101B0800BDE600BF70B54FF0FF0C4CF4E06C1CEA6A
:101B180011541DBF1CEA135594EA0C0F95EA0C0FDB
:101B280000F0DEF82C4481EA030621EA4C5123EA4E
:101B38004C5350EA013518BF52EA033541F480117D
:101B480043F4801338D0A0FB02CE4FF00005E1FB30
:101B580002E506F00042E0FB03E54FF00006E1FB7A
:101B680003569CF0000F18BF4EF0010EA4F1FF04BD
:101B7800B6F5007F64F5407404D25FEA4E0E6D41FD
:101B880046EB060642EAC62141EA55514FEAC5200E
:101B980040EA5E504FEACE2EB4F1FD0C88BFBCF58A
:101BA800E06F1ED8BEF1004F08BF5FEA500E50F13B
:101BB800000041EB045170BD06F0004646EA010101
:101BC80040EA020081EA0301B4EB5C04C2BFD4EB33
:101BD8000C0541EA045170BD41F480114FF0000E2C
:101BE800013C00F3AB8014F1360FDEBF002001F09A
:101BF800004170BDC4F10004203C35DA0C341BDC14
:101C080004F11404C4F1200500FA05F320FA04F0E5
:101C180001FA05F240EA020001F0004221F0004119
:101C280010EBD37021FA04F642EB06015EEA430E8C
:101C380008BF20EAD37070BDC4F10C04C4F12005BC
:101C480000FA04F320FA05F001FA04F240EA02006F
:101C580001F0004110EBD37041F100015EEA430E40
:101C680008BF20EAD37070BDC4F1200500FA05F260
:101C78004EEA020E20FA04F301FA05F243EA0203DF
:101C880021FA04F001F0004121FA04F220EA0200EE
:101C980000EBD3705EEA430E08BF20EAD37070BD34
:101CA80094F0000F0FD101F00046400041EB010114
:101CB80011F4801F08BF013CF7D041EA060195F0F6
:101CC800000F18BF704703F00046520043EB0303B0
:101CD80013F4801F08BF013DF7D043EA060370479D
:101CE80094EA0C0F0CEA135518BF95EA0C0F0CD0A8
:101CF80050EA410618BF52EA4306D1D181EA0301EE
:101D080001F000414FF0000070BD50EA410606BFE7
:101D18001046194652EA430619D094EA0C0F02D12C
:101D280050EA013613D195EA0C0F05D152EA033671
:101D38001CBF104619460AD181EA030101F000418F
:101D480041F0FE4141F470014FF0000070BD41F0D8
:101D5800FE4141F4780170BD70B54FF0FF0C4CF4B2
:101D6800E06C1CEA11541DBF1CEA135594EA0C0FD1
:101D780095EA0C0F00F0A7F8A4EB050481EA030E1E
:101D880052EA03354FEA013100F088804FEA033305
:101D98004FF0805545EA131343EA12634FEA0222D3
:101DA80045EA111545EA10654FEA00260EF0004194
:101DB8009D4208BF964244F1FD0404F5407402D2E6
:101DC8005B084FEA3202B61A65EB03055B084FEA77
:101DD80032024FF480104FF4002CB6EB020E75EB74
:101DE800030E22BFB61A754640EA0C005B084FEA9C
:101DF8003202B6EB020E75EB030E22BFB61A754619
:101E080040EA5C005B084FEA3202B6EB020E75EB63
:101E1800030E22BFB61A754640EA9C005B084FEADB
:101E28003202B6EB020E75EB030E22BFB61A7546E8
:101E380040EADC0055EA060E18D04FEA051545EAD7
:101E480016754FEA06164FEAC30343EA52734FEA80
:101E5800C2025FEA1C1CC0D111F4801F0BD141EAF9
:101E680000014FF000004FF0004CB6E711F4801F5E
:101E780004BF01430020B4F1FD0C88BFBCF5E06F3E
:101E88003FF6AFAEB5EB030C04BFB6EB020C5FEA4E
:101E9800500C50F1000041EB045170BD0EF0004EA3
:101EA8004EEA113114EB5C04C2BFD4EB0C0541EAD5
:101EB800045170BD41F480114FF0000E013C90E6D2
:101EC80045EA060E8DE60CEA135594EA0C0F08BF96
:101ED80095EA0C0F3FF43BAF94EA0C0F0AD150EA95
:101EE80001347FF434AF95EA0C0F7FF425AF104628
:101EF80019462CE795EA0C0F06D152EA03353FF450
:101F0800FDAE1046194622E750EA410618BF52EACC
:101F180043067FF4C5AE50EA41047FF40DAF52EAA0
:101F280043057FF4EBAE12E74A0011D212F5001216
:101F380011D20DD56FF47873B3EB62520ED44FEA19
:101F4800C12343F0004343EA505323FA02F0704799
:101F58004FF00000704750EA013002D14FF0FF30D7
:101F680070474FF000007047014B1868704700BF7A
:101F78003400002030B5141E05469BB0184605DA1B
:101F88008B234FF0FF302B601BB030BD4FF4027332
:101F9800ADF80C300CBF234604F1FF3302930593D0
:101FA8004FF6FF7300910491ADF80E3002461E9B68
:101FB8006946284600F074F8431CBCBF8B232B608D
:101FC800002CE1D00022009B1A70DDE707B50093D2
:101FD80013460A46014603480068FFF7CBFF03B0E3
:101FE8005DF804FB340000202DE9F0478E68824636
:101FF8009E420C469146984638D8B1F80CC01CF45D
:10200800906F31D062692568096902EB42026F1A44
:1020180002EBD272013355103B449D4238BF1D4636
:102028001CF4806F30D0294600F040FB064650B9BA
:102038000C234FF0FF30CAF80030A38943F0400367
:10204800A381BDE8F0873A46216900F0BBFAA3896D
:1020580023F4906343F08003A38126613E44266005
:1020680046466561ED1BA560464500D946463246A1
:102078004946206800F0B4FAA36800209B1BA360BF
:1020880023681E442660DCE72A4600F069FB064602
:102098000028E2D12169504600F0BCFAC8E70000E8
:1020A8002DE9F04F1E468B899DB01B0607460D464D
:1020B80014460ED50B6963B9402100F0F7FA286081
:1020C800286120B90C233B604FF0FF30C9E0402362
:1020D8006B610023099320238DF8293030234FF0BA
:1020E800010ADFF898918DF82A30039623461E4698
:1020F80013F8012B0AB1252AF9D1B6EB040B0BD042
:102108005B46224629463846FFF76EFF013000F04D
:10211800A380099B5B4409933378002B00F09C80D3
:1021280000234FF0FF32CDE90523013604930793CE
:102138008DF853301A933446052214F8011B4F4882
:1021480000F032FA049BC0B9D90644BF20228DF8AA
:1021580053201A0744BF2B228DF8532032782A2A9D
:1021680013D0344600200A26079A214611F8013B6D
:10217800303B092B4BD970B914E0A0EB09000AFADF
:1021880000F0184304902646D5E7039A111D1268FB
:102198000391002A01DB079204E0524243F0020354
:1021A8000792049323782E2B0CD163782A2B33D1F2
:1021B800039B02341A1D1B680392002BB8BF4FF013
:1021C800FF3305932E4E03222178304600F0ECF9B8
:1021D80038B14023801B03FA00F0049B0134034309
:1021E800049314F8011B062226488DF8281000F0E5
:1021F800DBF9002838D0244B13BB039B073323F0AB
:10220800070308330393099B434409936EE706FBCE
:10221800023201200C46A8E700230A261946013499
:102228000593204610F8012B303A092A03D9002BD0
:10223800C8D00591C6E706FB012101230446F0E753
:1022480003AB00932A46114B04A93846AFF300802C
:10225800B0F1FF3F8046D6D1AB895B063FF534AF7E
:1022680009981DB0BDE8F08F03AB00932A46074BD1
:1022780004A9384600F082F8EAE700BFA829000858
:10228800AE290008B229000800000000F11F00086C
:102298002DE9F04791461F468A680B690646934226
:1022A800B8BF1346C9F8003091F843200C46DDF852
:1022B800208012B10133C9F800302368990642BF63
:1022C800D9F800300233C9F80030256815F0060542
:1022D80007D104F1190AE368D9F800209B1AAB4228
:1022E80029DC94F843302268003318BF0123920692
:1022F8002ED404F1430239463046C047013021D07C
:102308002368E56803F00603042B18BF0025D9F8F5
:1023180000204FF0000908BFAD1AA368226908BF62
:1023280025EAE5759342C4BF9B1AED181A344D454A
:102338001AD1002008E00123524639463046C047EA
:10234800013003D14FF0FF30BDE8F0870135C2E717
:102358003020E11881F843005A1C94F845102244B3
:10236800023382F84310C4E7012322463946304637
:10237800C0470130E6D009F10109D8E72DE9F0435B
:1023880006460C4601F14300097E85B06E29984641
:1023980017460C9B00F0BB8024D8632939D00AD893
:1023A800002900F0C480582900F0928004F1420509
:1023B80084F8421035E0642901D06929F6D12568EE
:1023C8001A6815F0800F02F104012CD01268196008
:1023D800002A03DA2D23524284F84330DFF8C0C1C3
:1023E8000A233FE0732900F0A68008D86F2921D07E
:1023F8007029DBD1226842F02002226003E07529AF
:1024080018D07829D2D17822DFF898C184F84520ED
:1024180062E01A6804F14205111D1960136884F816
:102428004230012394E0126815F0400F196018BF7C
:1024380012B2CDE7D4F800C01A681CF0800F02F180
:1024480004051D6001D0126803E01CF0400FFAD0AB
:1024580012886F290CBF08230A23DFF844C1002122
:1024680084F843106568002DA8BF2168A560A4BF43
:1024780021F0040121600AB9002D46D00546B2FBBF
:10248800F3F103FB112E1CF80EE0934205F801ED61
:1024980039D9082B0BD12368DA0708D52369626874
:1024A8009A42DEBF302305F8013C05F1FF35401B99
:1024B8002061CDF800803B4603AA21463046FFF74D
:1024C800E7FE013049D14FF0FF3005B0BDE8F08399
:1024D800DFF8CCC084F845101D68216855F8042B36
:1024E8001D600D060BD5CD0744BF41F020012160CA
:1024F8001AB9236823F0200323601023AFE74B06A3
:1025080048BF92B2EFE70A46B9E70546C1E71A683D
:10251800D4F800C0151D61691CF0800F1D60136898
:1025280001D0196003E01CF0400FFAD01980002395
:1025380005462361BDE71A68111D19601568002159
:102548006268284600F030F808B1401B6060636894
:102558002361002384F84330ABE723692A463946D0
:102568003046C0470130AED023689B0713D4E068DB
:10257800039B9842B8BF1846A7E701234A46394645
:102588003046C04701309ED00135E368039A9B1A54
:10259800AB42F2DCEBE7002504F11909F5E700BFCF
:1025A800B9290008CA29000810B5C9B202449042E6
:1025B800034601D1002303E01C7801308C42F6D198
:1025C800184610BD0A44914200F1FF3300D170470C
:1025D80010B511F8014B914203F8014FF9D110BD24
:1025E800884210B501EB020302D983421C4607D882
:1025F800421E994208D011F8014B02F8014FF8E742
:1026080083189A1A9A4200D110BD14F8011D03F8D4
:10261800011DF7E738B50546002943D051F8043CB9
:102628000C1F002BB8BFE41800F0D0F81E4A13683E
:10263800104633B9636014602846BDE8384000F09E
:10264800CBB8A3420BD921686218934201BF1A681C
:102658005B685218226063600460EDE713465A68AD
:102668000AB1A242FAD919685818A0420BD12068B9
:102678000144581882421960DED11068526801443A
:1026880019605A60D8E702D90C232B60D4E7206878
:1026980021188A4201BF11685268091821606260D6
:1026A8005C60C9E738BD00BFB8010020F8B5CD1C93
:1026B80025F0030508350C2D38BF0C25002D0646DE
:1026C80001DBA94203D90C2333600020F8BD00F0D8
:1026D8007DF821490A6814469CB9204F3B6823B904
:1026E8002146304600F062F838602946304600F04E
:1026F8005DF8431C23D10C233046336000F06CF89E
:10270800E3E723685B1B17D40B2B03D923601C4416
:10271800256004E06368A2420CBF0B60536030463A
:1027280000F05AF804F10B00231D20F00700C21A2C
:10273800CCD01B1AA350C9E722466468CCE7C41C56
:1027480024F00304A042E3D0211A304600F02EF80A
:102758000130DDD1CFE700BFB8010020BC01002067
:10276800F8B5074614460E4621B91146BDE8F840AB
:10277800FFF79CBF22B9FFF74DFF25462846F8BD55
:1027880000F030F8A0420FD221463846FFF78EFFFE
:1027980005460028F2D031462246FFF713FF31469E
:1027A8003846FFF737FFE9E73546E7E738B500234E
:1027B800054C054608462360FDF7DCFD431C02D1A5
:1027C800236803B12B6038BDC0010020014800F028
:1027D80011B800BF78030020014800F00CB800BF12
:1027E8007803002051F8043C181F002BBCBF0B587D
:1027F800C018704770477047537461636B206672E6
:10280800616D653A0A000000205230203D202025E5
:102818003038580A00000000205231203D20202581
:102828003038580A00000000205232203D20202570
:102838003038580A00000000205233203D2020255F
:102848003038580A0000000020523132203D20253F
:102858003038580A00000000204C52203D20202526
:102868003038580A00000000205043203D20202521
:102878003038580A0000000020505352203D2025CF
:102888003038580A000000004653522F4641523A49
:102898000A0000002043465352203D2020253038AE
:1028A800580A00002048465352203D202025303841
:1028B800580A00002044465352203D202025303835
:1028C800580A00002041465352203D202025303828
:1028D800580A0000204D4D464152203D20253038F1
:1028E800580A00002042464152203D202025303819
:1028F800580A00004D6973630A000000204C522FEB
:102908004558435F52455455524E3D20253038585E
:102918000A0000005B486172644661756C745D0A68
:10292800000000005B4275734661756C745D0A00B7
:102938005B55736167654661756C745D0A000000DC
:102948006C03002000000000640300200000000069
:10295800C0020020000000005C030020000000000E
:102968005403002000000000256400004C4344206C
:1029780063616C6C6261636B0A0000005265636599
:102988006976696E6720446F6E650A005472616EDD
:10299800736D697373696F6E20646F6E650A0000EA
:1029A800232D302B2000686C4C0065666745464730
:1029B80000303132333435363738394142434445B3
:1029C8004600303132333435363738396162636422
:0329D80065660031
:1029DC0078563412A4000020000000000000000013
:1029EC0000000000010203040607080900A24A04C3
:1029FC0000127A000000000000000300000000003C
:102A0C00000003003800002000000000000000005F
:102A1C0000000000000000000000000000000000AA
:102A2C00000000000000000000000000000000009A
:102A3C00000000000000000000000000000000008A
:102A4C00000000000000000000000000000000007A
:102A5C00000000000000000000000000000000006A
:0C2A6C00000000000000000032547698CA
:040000050800010DE1
:00000001FF
